:020000040800F2
:10000000C0060024390300088B1A0008A118000854
:10001000091A000847040008BB200008000000007F
:100020000000000000000000000000008F1A00081F
:1000300049040008000000008D1A0008911A000809
:100040005703000857030008570300085703000828
:100050005703000857030008570300085703000818
:100060005703000857030008570300085703000808
:1000700057030008570300085703000857030008F8
:1000800057030008570300085703000857030008E8
:1000900057030008570300085703000857030008D8
:1000A00057030008570300085703000857030008C8
:1000B00057030008570300085703000857030008B8
:1000C00057030008570300085703000857030008A8
:1000D0005703000857030008570300085703000898
:1000E00057030008570300080000000057030008EA
:1000F0005703000857030008570300085703000878
:100100005703000857030008570300085703000867
:100110005703000857030008570300085703000857
:100120005703000857030008570300085703000847
:100130005703000857030008570300085703000837
:1001400000000000000000000000000000000000AF
:100150005703000857030008570300085703000817
:100160005703000857030008570300085703000807
:100170005703000857030008570300080000000059
:1001800057030008570300085703000857030008E7
:1001900057030008570300085703000857030008D7
:1001A00057030008570300085703000857030008C7
:1001B00057030008570300085703000857030008B7
:1001C00057030008570300085703000857030008A7
:1001D0005703000857030008570300085703000897
:1001E0005703000857030008570300085703000887
:1001F0005703000857030008570300085703000877
:100200005703000857030008570300085703000866
:100210005703000857030008570300085703000856
:1002200057030008570300085703000800000000A8
:100230005703000857030008000000005703000898
:100240005703000857030008570300085703000826
:100250005703000857030008570300085703000816
:100260005703000857030008570300085703000806
:100270005703000857030008570300080000000058
:100280005703000857030008570300080000000048
:10029000000000005703000800F002F800F03CF8EE
:1002A0000AA090E8000C82448344AAF10107DA45D1
:1002B00001D100F031F8AFF2090EBAE80F0013F0E7
:1002C000010F18BFFB1A43F001031847901E0000EE
:1002D000B01E0000103A24BF78C878C1FAD852077F
:1002E00024BF30C830C144BF04680C6070470000B0
:1002F0000023002400250026103A28BF78C1FBD82F
:10030000520728BF30C148BF0B6070471FB501F0CE
:1003100017FF1FBD10B510BD00F05CF81146FFF7C8
:10032000F5FF01F0DCFE00F07AF803B4FFF7F2FF0E
:1003300003BC00F081F800000A4880470A48804763
:100340000A480047FEE7FEE7FEE7FEE7FEE7FEE7B6
:10035000FEE7FEE7FEE7FEE705480649064A074BCB
:1003600070470000510400083D1B00089902000876
:10037000C0000024C0060024C0020024C0020024E3
:100380004FF0000200B5134694469646203922BF2E
:10039000A0E80C50A0E80C50B1F12001BFF4F7AF79
:1003A000090728BFA0E80C5048BF0CC05DF804EB5B
:1003B000890028BF40F8042B08BF704748BF20F8C9
:1003C000022B11F0804F18BF00F8012B70477047C7
:1003D00070477047754600F02BF8AE460500694639
:1003E000534620F00700854618B020B5FFF7B4FF4C
:1003F000BDE820404FF000064FF000074FF0000826
:100400004FF0000B21F00701AC46ACE8C009ACE8A6
:10041000C009ACE8C009ACE8C0098D46704710B50A
:100420000446AFF300802046BDE81040FFF77DBFD3
:10043000004870476000002401491820ABBEFEE769
:10044000260002007047FEE7704772B6FEE7000024
:10045000054805490839026842F00202026008684E
:100460008004FCD5704700000C4802582DE9F84F75
:1004700003247D4D00234FF001094FF0B04B4FF0A6
:100480000F0AE9E009FA03F73A4076D00E7906F050
:100490000306012E01D0022E18D1D0F808C04FEA71
:1004A000430ECE6804FA0EF82CEA080C06FA0EF693
:1004B00046EA0C068660D0F804C00E792CEA070CD8
:1004C000C6F300169E4046EA0C0646600E79F643D7
:1004D000B6070BD0C6684FEA43088F6804FA08FCD9
:1004E00026EA0C0607FA08F73743C7600E7906F0CC
:1004F0000306022E12D1DE080F694FEA437C00EB9F
:100500008606B646366A4FEADC6C0AFA0CF807FA39
:100510000CF726EA08063743CEF820700F790668F4
:100520004FEA430807F0030704FA08FC07FA08F744
:1005300026EA0C06374307604E6816F4403F1CD08D
:100540004A4E376847F00207376036689F0706F063
:100550000206009623F0030606F1B046B6463F0FAA
:10056000D6F80864DFF808810AFA07FC404526EA55
:100570000C0603D14FF0000C41E06CE0DFF8F4C052
:10058000604502D14FF0010C39E0DFF8ECC0604566
:1005900002D14FF0020C32E0DFF8E0C0604502D13A
:1005A0004FF0030C2BE0DFF8D8C0604502D14FF0CC
:1005B000040C24E0DFF8CCC0604502D14FF0050CFC
:1005C0001DE0DFF8C4C0604502D14FF0060C16E014
:1005D000DFF8B8C0604502D14FF0070C0FE0DFF83C
:1005E000B0C0604502D14FF0080C08E0DFF8A4C0AD
:1005F000604502D14FF0090C01E04FF00A0C0CFAF3
:1006000007FC4CEA060CCEF808C44F68DBF8006023
:10061000FF0226EA020600D516435F46CBF80060CB
:10062000D1F804C0DBF804605FEA8C2C26EA0206ED
:1006300000D516437E606E684F6826EA0206BF0347
:1006400000D516436E602E684F6826EA0206FF0347
:1006500000D516432E605B1C0A6832FA03F67FF45D
:1006600011AFBDE8F88F000080000058F444025834
:10067000000002580004025800080258000C0258FA
:10068000001002580014025800180258001C0258AA
:1006900000200258002402580AB181617047090401
:1006A000FBE7000001480068000C70470010005C88
:1006B00001488068704700000000002402488168FB
:1006C000027811448160704700000024032010B5B7
:1006D00000F0C6F800F02EFA0F4A104914681368AB
:1006E000C4F3032203F00F038A5CC95C02F01F020B
:1006F00001F01F01D0400A4A20FA01F111600949B6
:1007000008600F2000F010F808B1012010BD00F0C3
:1007100079F8002010BD0000184402584A21000852
:10072000100000240C00002470B50D4D04462878FC
:10073000A0B14FF47A71B1FBF0F00A490968B1FB3E
:10074000F0F000F054FD48B9102C07D200222146E9
:10075000501E00F065F800206C6070BD012070BD77
:10076000000000240C000024154BF0B5083B427833
:1007700013491A600B680A1F23F001030B604368DA
:100780001360057BC67A827A437B2D07847B45EA1A
:100790000665C77B90F809C0067A90F800E045EA44
:1007A000C24040EA834040EA444040EA074040EA11
:1007B0000C2040EA460040EA0E000860F0BD000050
:1007C000A0ED00E0BFF35F8F044800210368034AF7
:1007D00023F48033036070321160704724ED00E031
:1007E000074A40F00100064970321060086840F482
:1007F00080300860BFF34F8FBFF36F8F70470000EA
:1008000024ED00E0054808B5016841F002010160EF
:10081000006800F00200009008BD0000F444025897
:100820000E4BF0B41B680D46C3F30223C3F1070659
:10083000042E00D90426191D072901D2002300E047
:10084000DB1E012404FA06F19C40491E2940641E67
:10085000994014402143F0BC01F030BC0CED00E0A5
:10086000064900F0070210B54FF6FF040868044B74
:10087000204040EA02201843086010BD0CED00E063
:100880000000FA05134970B50A68D243520705D52E
:10089000096801F00701814213D118E00A6822F0CB
:1008A000070202430A60FFF703FF0A4D4FF47A760E
:1008B0000446083D07E000BFFFF7FAFE001BB04208
:1008C00001D9012070BD2868C0438004F4D4002001
:1008D00070BD00000C4802582DE9F05F04000F467F
:1008E0007ED0DFF83882D8F8000000F00F00B84260
:1008F0000CD2D8F8001021F00F013943C8F80010CD
:10090000D8F8000000F00F00B84269D12078844D7B
:1009100040070AD52069296801F07001884204D98E
:10092000296821F070010143296020787C4E361D32
:1009300000070AD56069316801F07001884204D966
:10094000316821F07001014331602078C0060AD57A
:10095000A069316801F4E061884204D9316821F46A
:10096000E061014331602078DFF8B4B180060BF11B
:10097000080B0CD5E1695846DBF8002002F0700244
:10098000914204D9026822F070020A430260207882
:1009900080070AD5E068296801F00F01884204D970
:1009A000296821F00F01014329602078C0073ED05B
:1009B0005B49A2682868183920F4706010432860E9
:1009C0006068022818D0032819D00968012819D0B6
:1009D000490700294ADADFF848A1AAF1080A00E02D
:1009E00044E0DAF8002022F007020243CAF80020AF
:1009F000FFF75EFE814612E009688903E9E70968AE
:100A00008901E6E7C905E4E7FFF752FEA0EB09011B
:100A100041F28830814202D90320BDE8F09F61682D
:100A2000DAF8000000F03800B0EBC10FECD120780C
:100A300080070AD5E068296801F00F01884204D2D6
:100A4000296821F00F0101432960D8F800104046C1
:100A500001F00F01B9420BD9016821F00F013943B0
:100A60000160006800F00F00B84201D00120D4E717
:100A7000207840070AD52069296801F07001884272
:100A800004D2296821F07001014329602078000711
:100A90000AD56069316801F07001884204D231687A
:100AA00021F07001014331602078C0060AD5A069A9
:100AB000316801F4E061884204D2316821F4E061D8
:100AC00001433160207880060CD5E1695846DBF897
:100AD000002002F07002914204D2026822F07002FB
:100AE0000A43026000F026F80E492A682B68C2F318
:100AF000032203F00F038A5CC95C02F01F0201F0BD
:100B00001F01D040084A20FA01F11160074908602E
:100B100007480068BDE8F05FFFF706BE00200052FE
:100B2000184402584A210008100000240C00002438
:100B300004000024454970B545480968434B103B03
:100B400011F0380208D00111082A03D0102A0BD066
:100B5000182A0BD0084670BD19688906FBD519689C
:100B6000C1F3C101C84070BD3A4870BD3749374D27
:100B700018310C1D24350A68096826682D6802F0B2
:100B8000030406F00102C1F30511C5F3CC0515FB02
:100B900002F200EE102AB8EE400AE9B32F4ADFED68
:100BA0002E0AB7EE001A6CB1DFED2D1A012C01D020
:100BB000022C43D002EE101A1068F8EE422A81EEA1
:100BC000A22A1EE01C68A40611D51B6801EE901A2B
:100BD0001168C3F3C103F8EE612AD84001EE900A10
:100BE000C1F30800F8EE611A81EEA22A0BE001EED3
:100BF000901ADFED1C2A00BFF8EE611A106882EE31
:100C0000A12AC0F3080001EE900AF8EE611A40EE46
:100C1000201A31EE810A00E015E022EE000A106889
:100C2000C0F34620401C00EE900AF8EE600A80EE09
:100C3000201ABCEEC10A10EE100A70BD01EE901A27
:100C4000DFED092AD8E7002070BD000010440258EB
:100C50000090D00340787D010000003930440258F4
:100C60000024744A0024744C20BCBE4B2DE9F05F74
:100C700004007DD0FF4F2078FE4D1837DFF8F49345
:100C8000103DC00748D0D9F80000396800F038009E
:100C9000102815D0182803D101F0030002280FD026
:100CA0006068B0F5803F12D010B1B0F5A02F18D019
:100CB000286820F480302860286820F4802009E02B
:100CC0002868800328D560680028D2D024E02868EE
:100CD00040F480302860606888B1FFF7E9FC064680
:100CE00009E0286840F480202860F0E7FFF7E0FC86
:100CF000801B64286FD828688003F7D50CE0FFF7C5
:100D0000D7FC064605E000BFFFF7D2FC801B642835
:100D1000F0D828688003F7D4207841F20308D54E34
:100D20000C3E800769D5D9F80000396810F038000A
:100D30000ED0182801D188070AD0E06890B329683E
:100D400021F0190101432960FFF7B2FC824631E02E
:100D50002868400702D5E06800288AD0E168286842
:100D600020F0190008432860FFF7A2FC824607E044
:100D7000DFE000BFFFF79CFCA0EB0A000228B9D817
:100D800028684007F6D500BFFFF78CFC40451BD80C
:100D90002069402812D0316821F47C3141EA0030CA
:100DA00030602AE018E000BFFFF782FCA0EB0A00E9
:100DB00002289FD828684007F6D5E5E7306820F478
:100DC0007C3040F40030EBE7207C316821F0FE41BC
:100DD00041EA0060E4E70DE1286820F001002860A6
:100DE000FFF766FC824605E0FFF762FCA0EB0A0015
:100DF00002288DD828684007F6D42078C0065DD533
:100E0000D9F80000DFF86CB2396800F03800ABF1B7
:100E1000040B082810D0182803D101F00300012882
:100E20000AD0E0690028286838D040F080002860A7
:100E3000FFF73EFC824623E02868C00523D5E06921
:100E4000802876D11FE0206A202821D0316821F047
:100E5000F84141EA8060306030E000BF94F8201033
:100E6000DBF8002022F07C5242EA0161CBF800104E
:100E700024E000BFFFF71CFCA0EB0A00022898D872
:100E80002868C005F6D5FFF70DFC4045E6D8DAE73F
:100E9000306820F0F84040F08040DCE720F080002F
:100EA0002860FFF705FC064605E000BFFFF700FCE1
:100EB000801B02289DD82868C005F7D42078000739
:100EC00029D56C486169643000298046016811D0D9
:100ED00041F001010160FFF7EBFB064605E000BFB2
:100EE000FFF7E6FB801B0228C9D8D8F8000080076E
:100EF000F6D510E021F001010160FFF7D9FB0646AD
:100F000005E000BFFFF7D4FB801B022872D8D8F899
:100F100000008007F6D42078800623D5A069002839
:100F2000286810D040F480502860FFF7C1FB0646C7
:100F300005E036E1FFF7BCFB801B02285AD8286881
:100F40008004F7D50EE020F480502860FFF7B0FB56
:100F5000064604E0FFF7ACFB801B02284AD828684D
:100F60008004F7D4207840074FD5DFF80C81D8F8FB
:100F7000001041F48071C8F80010FFF799FB064695
:100F800005E000BFFFF794FB801B642832D8D8F837
:100F90000000C005F6D5374EA068603601280AD09B
:100FA00008B1052813D0306820F0010030603068A7
:100FB00020F0040002E0306840F001003060A068DA
:100FC00041F2883A90B1FFF773FB80460AE030683F
:100FD00040F004003060EEE7FFF76AFBA0EB080189
:100FE000514507D830688007F6D50EE0FFF760FB63
:100FF000804607E084E000BFFFF75AFBA0EB080142
:1010000051457DD830688007F6D4606AB0B3DFF808
:101010006480D9F8001008F120084FF6F87B08F139
:101020000409C1F3C2010329A8F1040A69D0022806
:10103000286820F08070286003D0FFF739FB044651
:1010400084E0FFF735FB064605E000BFFFF730FB05
:10105000801B022877D828688001F7D4E26A40F222
:10106000F331386854F8283F884340EA02101843A7
:10107000386004E01044025800480258B5E0217B73
:10108000434622894FF4FE0C208A4FF0FE47490266
:10109000267D521E401EA1F50071C2F308088AB2D7
:1010A000761E0CEA004042EA08020243504607EA74
:1010B00006610A431A60DAF8002022F00102CAF839
:1010C0000020D9F80020266A22EA0B0242EAC60272
:1010D000C9F80020DAF80010A26921F00C011143D0
:1010E000CAF800100168E26921F0020111430160B1
:1010F000016841F480310160016841F4003101E090
:1011000021E027E00160016841F48021016001686D
:1011100041F001010160286840F080702860FFF70D
:10112000C7FA044605E000BFFFF7C2FA001B022819
:1011300009D828688001F7D557E000BFFFF7B8FA53
:10114000001B022802D90320BDE8F09F2868800117
:10115000F4D44AE039680128D8F8000021D0A26A06
:1011600001F0030393421CD1E26AC1F305118A42E4
:1011700017D1216BC0F30802491E8A4211D1616B5D
:10118000C0F34622491E91420BD1A16BC0F3064227
:10119000491E914205D1E16BC0F30660491E8142B0
:1011A00001D00120D0E7A16C4E46D9F80000C0F371
:1011B000CC00814219D0DAF80000554620F0010039
:1011C000CAF80000FFF774FA4FEA0007FFF770FA59
:1011D000B842FBD0A26C306820EA0B0040EAC200A3
:1011E0003060286840F0010028600020ACE7401E15
:1011F000B0F1807F10B501D3012010BD4FF0E02485
:1012000060610F21601700F059FF0020A0610721E5
:10121000216110BD2DE9F04390F83C20012A42D015
:10122000012280F83C2051F80C4BDFF880804FF011
:10123000000991E8680051E9022723F44073B1F8EE
:101240000CC03B43CF6923F480631343026823F44B
:101250000063234323F4805343EA050323F400533C
:1012600043EA060323F4804343EA07030C3923F4DB
:101270007023424543EA0C4302D00D4CA2420CD1EC
:101280008D8C23F47006D1E9073446EA055121F02C
:101290008071194321F000732343536480F83C901C
:1012A0000020BDE8F0830220FBE7000000000140C1
:1012B00000040140F0B590F83C20012A3BD01F4EBD
:1012C000012480F83C40022280F83D2002681C4D39
:1012D0005368B242D2F808C001D0AA4203D14F6885
:1012E00023F470033B430F6823F070031F435760E0
:1012F0000268B24213D0B2F1804F10D0114B9A4223
:101300000DD0114B9A420AD0104B9A4207D0AA42F4
:1013100005D00F4B9A4202D00E4B9A4204D18968F5
:101320002CF0800319439160002180F83D4080F843
:101330003C100846F0BD0220F0BD00000000014056
:10134000000401400004004000080040000C004080
:10135000001800400040014010B5040003D094F88C
:101360003D0010B107E0012010BD002084F83C00D2
:10137000204600F023F8022084F83D002068211D5B
:1013800000F058FC012084F8480084F83E0084F8FE
:101390003F0084F8400084F8410084F8420084F85B
:1013A000430084F8440084F8450084F8460084F83B
:1013B000470084F83D00002010BD000008B500681B
:1013C0000649884208D10648016841F001010160E0
:1013D000006800F00100009008BD0000000001401E
:1013E000F044025870B5044690F83C0000250128EE
:1013F00014D03A4B012684F83C60022084F83D006A
:1014000022689068184020F47F4090600868702837
:101410002FD010DC10F00F0F03D022E04FF00200AD
:1014200070BD4FEA2012072A1BD2DFE802F05353A7
:1014300053534B394100B0F1101F4BD009DCB0F5CC
:10144000805F0FD0B0F5005F1ED0B0F5801F08D1CF
:1014500040E0A0F5801120393CD010293AD0202955
:1014600038D0012584F83D60002084F83C002846EF
:1014700070BD4A682068D1E9021300F04EFC206874
:10148000816841F0770109E04A682068D1E90213D8
:1014900000F043FC2068816841F480418160E1E70D
:1014A000CA684968206800F0E5FD2068502106E020
:1014B000CA684968206800F0EEFD2068602100F0ED
:1014C00035FCCFE7CA684968206800F0D3FD206882
:1014D0004021F4E7226801461046F0E788FFCEFF7E
:1014E00010B586B0044614216846FEF749FF0E4940
:1014F0002068884216D10D48016841F01001016052
:1015000000680123022200F01000059000204FF433
:10151000206100916946CDE90120CDE9030304482B
:10152000FEF7A4FF06B010BD00000140E0440258E1
:101530000010025870B5044690F83C0000250128C0
:101540000BD0012084F83C000C2A1ED007DC82B1AD
:10155000042A12D0082A06D113E0022070BD102AF6
:1015600017D0142A19D00125002084F83C00284601
:1015700070BD206800F0E4FBF6E7206800F032FC64
:10158000F2E7206800F07AFCEEE7206800F0C2FC89
:10159000EAE7206800F0FAFCE6E7206800F030FD9A
:1015A000E2E710B5040003D094F83D0010B107E065
:1015B000012010BD002084F83C00204600F022F8F5
:1015C000022084F83D002068211D00F033FB01203B
:1015D00084F8480084F83E0084F83F0084F8400016
:1015E00084F8410084F8420084F8430084F8440001
:1015F00084F8450084F8460084F8470084F83D00EC
:10160000002010BD704770B5044690F83C000026DD
:101610000D4601280BD0012084F83C000C2A4AD04A
:1016200007DC82B1042A20D0082A06D131E002204A
:1016300070BD102A53D0142A63D00126002084F8EC
:101640003C00304670BD206800F07AFB206881695C
:1016500041F0080181612068816921F00401816104
:1016600020682A698169114311E0206800F0BAFB03
:101670002068816941F4006181612068816921F4F9
:101680008061816120682969826942EA0121816162
:10169000D4E7206800F0F2FB2068C16941F008013E
:1016A000C1612068C16921F00401C16120682A6913
:1016B000C169114311E0206800F02CFC2068C16969
:1016C00041F40061C1612068C16921F48061C16198
:1016D00020682969C26942EA0121C161AEE7206838
:1016E00000F054FC2068416D41F00801416520681C
:1016F000416D21F00401416520682A69416D114363
:1017000011E0206800F07CFC2068416D41F400612C
:1017100041652068416D21F4806141652068296937
:10172000426D42EA0121416588E710B5040003D00B
:1017300094F83D0010B107E0012010BD002084F8AE
:101740003C00204600F022F8022084F83D0020688A
:10175000211D00F06FFA012084F8480084F83E0053
:1017600084F83F0084F8400084F8410084F8420087
:1017700084F8430084F8440084F8450084F8460067
:1017800084F8470084F83D00002010BD7047000039
:1017900030B504464FF0020269B1042912D008297D
:1017A00017D00C291CD0102921D094F8430001280F
:1017B00024D0012030BD94F83E000128F9D184F8EE
:1017C0003E201DE094F83F000128F2D184F83F202C
:1017D00016E094F840000128EBD184F840200FE097
:1017E00094F841000128E4D184F8412008E094F8FD
:1017F00042000128DDD184F8422001E084F8432032
:101800000122206800F07CFA1B4B20681B491C4A0F
:10181000984209D0884207D0904205D0194DA8427D
:1018200002D0194DA84203D1456C45F400454564EA
:101830002068984212D0B0F1804F0FD0134B9842DD
:101840000CD0134B984209D0124B984206D08842D4
:1018500004D01149884201D0904207D181680F4AD3
:101860001140062906D0B1F5803F03D0016841F050
:1018700001010160002030BD000001400004014072
:101880000040014000440140004801400004004085
:1018900000080040000C0040001800400700010054
:1018A000FEE7000030B587B014216846FEF768FDFA
:1018B0001648016841F004010160016801F004016B
:1018C0000591016841F080010160016801F080012B
:1018D0000591016841F01001016000684FF4A054C7
:1018E0000B4D002200F01000214605902846FEF71F
:1018F000D3FE002100940120CDE901012846039187
:101900006946FEF7B3FD07B030BD0000E044025861
:101910000010025810B59AB000241C21009412A89F
:10192000019402940394049405940694FEF728FD10
:101930002C2107A8FEF724FD32481722304940F237
:10194000E73380E81600C0E9033444618461FFF79F
:1019500003FD08B1FEF779FD4FF48050009029484F
:101960006946FFF73FFD08B1FEF76FFD2548FFF719
:10197000DCFE08B1FEF769FD2248FFF712FE08B150
:10198000FEF763FD1F4804A9049405940694FFF72D
:1019900091FC08B1FEF759FD60201494CDE91204C2
:1019A0001848002212A91594169417941894FFF75A
:1019B0002AFE08B1FEF749FD1248042212A912942A
:1019C000FFF7B8FD08B1FEF740FD4FF40050079453
:1019D0000894099401030A94CDE90B40CDE90E4126
:1019E000084807A90D9410941194FFF713FC08B14F
:1019F000FEF72BFD0348FFF773FD1AB010BD000082
:101A00000000014014000024FEE700000648002109
:101A100010B5FFF7BDFE04480421FFF7B9FEBDE88D
:101A2000104000F025B800001400002470B5B2F595
:101A30007A7F144601D340F2E7340B4B0B4D01285B
:101A400009D0022806D10A46C1021846FEF724FE34
:101A50002868846370BD0A4618464FF48061FEF71B
:101A60001BFE2868446370BD001002581400002457
:101A700000220120114610B5FFF7D8FF0022BDE873
:101A8000104002201146FFF7D1BFFEE770477047B4
:101A9000FEF714BE70B59CB04C216846FEF770FC92
:101AA000202113A8FEF76CFC0220FEF7EBFE214874
:101AB00000242149026842F44042026002680A6838
:101AC00042F001020A60096801F001011B910168FE
:101AD0008904FCD50DF1280C022009900521C022B3
:101AE0008CE80700C6030F9008250D9001230E9087
:101AF000CDE91054CDE9003668461294FFF7B6F8E8
:101B000008B172B6FEE740201A903F210301CDE9EB
:101B100016500322CDE9180313AB13A883E816006F
:101B20000421FEF7D9FE002801D072B6FEE71CB0F2
:101B300070BD0000184802582C0400583348F0B516
:101B4000334A016841F470010160106800F00F0031
:101B5000072804D2106820F00F00C01D10602D4926
:101B600000202C4C10340B682B4D43F001030B600C
:101B700020600B682B400B60136803F00F03072BEA
:101B800004D9136823F00F03DB1D1360214C234A93
:101B90001834234B261D371D20601E4C214D283440
:101BA0003060261D3860371D23603B1D35601C1DCD
:101BB0003A60251D2E1D1860331D2260286032609A
:101BC00018600A68134B184C22F4802260330A60B4
:101BD000186020686FF30F00B0F1005F03D2134963
:101BE0000120C1F808010B48D4300168C9040BD4A6
:101BF000026843F2D2010E4B42F480520260196037
:101C0000016821F480510160F0BD000088ED00E022
:101C100000200052004402587FEDF6EA80020101E4
:101C2000000202020000FF010010005C0080005171
:101C3000004000522DE9F047294B4FF0804A294DD2
:101C400002689842284E294F294C09D0504507D0A8
:101C5000A84205D0B04203D0B84201D0A04205D17D
:101C6000D1F804C022F070024CEA0202DFF884C00E
:101C7000DFF884809842DFF884900FD050450DD073
:101C8000A8420BD0B04209D0B84207D0A04205D03C
:101C9000604503D0404501D0484503D1CD6822F4CA
:101CA00040722A438E684D6922F08002C6620E6837
:101CB0002A439842866207D0A04205D0604503D0EF
:101CC000404501D0484501D10969016303680121FC
:101CD00043F00403036041610260BDE8F087000047
:101CE000000001400004004000080040000C0040DB
:101CF0000004014000400140004401400048014010
:101D000010B5046A012301F01F018B409C4304625B
:101D10008A40016A1143016210BD42EA03228368CE
:101D20000A4323F47F410A4382607047034B826871
:101D30001A400A4342F00701816070478FFFCFFFCE
:101D40002DE9F04FDFF88480214EDFF88890DFF82E
:101D500088B0026A036AB042DFF880A022F0020C69
:101D60001F4F23F001020262426885698B680C688C
:101D700005EA080525F0030543EA0C0344EA0504D7
:101D800007D0484505D0584503D0504501D0B8424A
:101D900005D1CD6823F008031D4325F00403B042AC
:101DA00007D0484505D0584503D0504501D0B8422A
:101DB00005D122F44076D1E9055235432A434260E9
:101DC0008461496841630362BDE8F08F8FFFFEFFC5
:101DD0000000014000040140004001400044014077
:101DE00000480140F0B5DFF87CE01F4C1F4D026A4F
:101DF000036AA04222F0200623F010030362426827
:101E00008369D1F808C00F6803EA0E0323F4407E0B
:101E100046EA0C134EEA072601D0A84206D1CF6845
:101E200023F0800343EA071323F04003A0420AD0C3
:101E3000A84208D00E4CA04205D00E4CA04202D0C1
:101E40000D4CA04207D1D1E9054522F4406242EA97
:101E5000840242EA850242608661496881630362C6
:101E6000F0BD0000FF8FFFFE0000014000040140B4
:101E7000004001400044014000480140F0B5DFF857
:101E80007CE01F4D1F4E026A036AA84222F40077CD
:101E900023F4807303624368C269D1F808C002EA80
:101EA0000E020C6822F0030E47EA0C2244EA0E04EC
:101EB00001D0B04206D1CF6822F4006242EA072284
:101EC00022F48062A8420AD0B04208D00E4DA84247
:101ED00005D00E4DA84202D00D4DA84207D1D1E940
:101EE000055623F4405343EA051343EA06134360BF
:101EF000C4614968C1630262F0BD00008FFFFEFF4C
:101F00000000014000040140004001400044014045
:101F100000480140F0B5046A026A22F4805202626D
:101F20004268C36924F40054DFF848C08E680D6825
:101F300003EA0C03104F23F4407344EA0634B8421A
:101F400043EA05230BD00D4DA84208D00C4DA84202
:101F500005D00C4DA84202D00B4DA84204D14D69CA
:101F600022F4804242EA85124260C36149680164FA
:101F70000462F0BDFF8FFFFE00000140000401403D
:101F8000004001400044014000480140F0B5164FB8
:101F9000164B026A046A984222F4003524F4803316
:101FA00003624268436D0E890C6803EA070344EA42
:101FB000030445EA06430BD00D4DA84208D00D4D51
:101FC000A84205D00C4DA84202D00C4DA84204D125
:101FD0004D6922F4803242EA052242604465496834
:101FE00081650362F0BD00008FFFFEFF000001402D
:101FF000000401400040014000440140004801400D
:10200000F0B5164F164B026A046A984224F4801306
:10201000036222F400144268436D0E890D6803EADE
:10202000070344EA065443EA05230BD00D4DA842AA
:1020300008D00D4DA84205D00C4DA84202D00C4D41
:10204000A84204D14D6922F4802242EA85224260EE
:1020500043654968C1650462F0BD0000FF8FFFFE63
:1020600000000140000401400040014000440140E4
:102070000048014010B5036A046A23F00A0324F003
:102080000104046284690B4324F0F00141EA021167
:102090008161036210BD10B5036A046A23F0A003D6
:1020A00024F010040462846943EA011124F47043AB
:1020B00043EA02328261016210BDFEE7090700288F
:1020C0004FEA116104DB00F1E02080F80014704752
:1020D00000F00F0000F1E02080F8141D70471FB5DC
:1020E00000240094019402940394FEF76BFB0120FA
:1020F0008DF80C001F218DF8081087228DF809201B
:102100008DF80D008DF8000068468DF80A408DF8B6
:102110000E408DF8014001948DF80B408DF80F4072
:10212000FEF722FB0420FEF75BFBFEF7CFFAFFF77A
:10213000B1FCFFF7B7FBFFF7EDFBFFF767FCFEE72E
:102140004FF04070E1EE100A7047000000000102FD
:102150000304010203040607080900007C210008AB
:102160000000002414000000D402000890210008A0
:1021700014000024AC060000F0020008010000007A
:1021800010000000000000000090D0030090D00379
:040000050800029954
:00000001FF
